{"src/contracts/contracts/AutomationRegistry.sol":{"AutomationRegistry":{"abi":[{"inputs":[{"internalType":"uint256","name":"_minimumFunding","type":"uint256"}],"stateMutability":"nonpayable","type":"constructor"},{"anonymous":false,"inputs":[{"indexed":true,"internalType":"uint256","name":"upkeepId","type":"uint256"},{"indexed":false,"internalType":"uint256","name":"amount","type":"uint256"}],"name":"FundsAdded","type":"event"},{"anonymous":false,"inputs":[{"indexed":true,"internalType":"uint256","name":"upkeepId","type":"uint256"}],"name":"UpkeepCancelled","type":"event"},{"anonymous":false,"inputs":[{"indexed":true,"internalType":"uint256","name":"upkeepId","type":"uint256"},{"indexed":false,"internalType":"uint256","name":"gasUsed","type":"uint256"}],"name":"UpkeepPerformed","type":"event"},{"anonymous":false,"inputs":[{"indexed":true,"internalType":"uint256","name":"upkeepId","type":"uint256"},{"indexed":true,"internalType":"address","name":"owner","type":"address"},{"indexed":false,"internalType":"address","name":"targetContract","type":"address"}],"name":"UpkeepRegistered","type":"event"},{"inputs":[{"internalType":"uint256","name":"_upkeepId","type":"uint256"}],"name":"addFunds","outputs":[],"stateMutability":"payable","type":"function"},{"inputs":[{"internalType":"uint256","name":"_upkeepId","type":"uint256"}],"name":"cancelUpkeep","outputs":[],"stateMutability":"nonpayable","type":"function"},{"inputs":[{"internalType":"uint256","name":"_upkeepId","type":"uint256"}],"name":"getUpkeepInfo","outputs":[{"internalType":"address","name":"owner","type":"address"},{"internalType":"address","name":"targetContract","type":"address"},{"internalType":"uint256","name":"balance","type":"uint256"},{"internalType":"bool","name":"active","type":"bool"},{"internalType":"uint256","name":"lastExecuted","type":"uint256"},{"internalType":"uint256","name":"interval","type":"uint256"}],"stateMutability":"view","type":"function"},{"inputs":[],"name":"minimumFunding","outputs":[{"internalType":"uint256","name":"","type":"uint256"}],"stateMutability":"view","type":"function"},{"inputs":[],"name":"owner","outputs":[{"internalType":"address","name":"","type":"address"}],"stateMutability":"view","type":"function"},{"inputs":[{"internalType":"uint256","name":"_upkeepId","type":"uint256"},{"internalType":"uint256","name":"_gasUsed","type":"uint256"}],"name":"performUpkeep","outputs":[],"stateMutability":"nonpayable","type":"function"},{"inputs":[{"internalType":"address","name":"_targetContract","type":"address"},{"internalType":"bytes","name":"_checkData","type":"bytes"},{"internalType":"uint256","name":"_interval","type":"uint256"}],"name":"registerUpkeep","outputs":[{"internalType":"uint256","name":"","type":"uint256"}],"stateMutability":"payable","type":"function"},{"inputs":[],"name":"upkeepCount","outputs":[{"internalType":"uint256","name":"","type":"uint256"}],"stateMutability":"view","type":"function"},{"inputs":[{"internalType":"uint256","name":"","type":"uint256"}],"name":"upkeeps","outputs":[{"internalType":"address","name":"owner","type":"address"},{"internalType":"address","name":"targetContract","type":"address"},{"internalType":"bytes","name":"checkData","type":"bytes"},{"internalType":"uint256","name":"balance","type":"uint256"},{"internalType":"bool","name":"active","type":"bool"},{"internalType":"uint256","name":"lastExecuted","type":"uint256"},{"internalType":"uint256","name":"interval","type":"uint256"}],"stateMutability":"view","type":"function"}],"evm":{"bytecode":{"linkReferences":{},"object":"60806040523480156200001157600080fd5b50604051620015bb380380620015bb8339818101604052810190620000379190620000c6565b33600360006101000a81548173ffffffffffffffffffffffffffffffffffffffff021916908373ffffffffffffffffffffffffffffffffffffffff1602179055508060028190555050620000f8565b600080fd5b6000819050919050565b620000a0816200008b565b8114620000ac57600080fd5b50565b600081519050620000c08162000095565b92915050565b600060208284031215620000df57620000de62000086565b5b6000620000ef84828501620000af565b91505092915050565b6114b380620001086000396000f3fe6080604052600436106100865760003560e01c80638be59218116100595780638be59218146101515780638da5cb5b146101945780638dda5462146101bf578063be999705146101ea578063c80480221461020657610086565b806329e0a8411461008b57806346b7707d146100cd57806356952b1a146100fd5780637323f3d014610126575b600080fd5b34801561009757600080fd5b506100b260048036038101906100ad9190610aa8565b61022f565b6040516100c496959493929190610b40565b60405180910390f35b6100e760048036038101906100e29190610c32565b6102cf565b6040516100f49190610ca6565b60405180910390f35b34801561010957600080fd5b50610124600480360381019061011f9190610cc1565b610529565b005b34801561013257600080fd5b5061013b610690565b6040516101489190610ca6565b60405180910390f35b34801561015d57600080fd5b5061017860048036038101906101739190610aa8565b610696565b60405161018b9796959493929190610d91565b60405180910390f35b3480156101a057600080fd5b506101a96107ad565b6040516101b69190610e07565b60405180910390f35b3480156101cb57600080fd5b506101d46107d3565b6040516101e19190610ca6565b60405180910390f35b61020460048036038101906101ff9190610aa8565b6107d9565b005b34801561021257600080fd5b5061022d60048036038101906102289190610aa8565b6108a2565b005b600080600080600080600080600089815260200190815260200160002090508060000160009054906101000a900473ffffffffffffffffffffffffffffffffffffffff168160010160009054906101000a900473ffffffffffffffffffffffffffffffffffffffff1682600301548360040160009054906101000a900460ff16846005015485600601549650965096509650965096505091939550919395565b6000600254341015610316576040517f08c379a000000000000000000000000000000000000000000000000000000000815260040161030d90610e7f565b60405180910390fd5b60006001600081548092919061032b90610ece565b9190505590506040518060e001604052803373ffffffffffffffffffffffffffffffffffffffff1681526020018773ffffffffffffffffffffffffffffffffffffffff16815260200186868080601f016020809104026020016040519081016040528093929190818152602001838380828437600081840152601f19601f8201169050808301925050505050505081526020013481526020016001151581526020014281526020018481525060008083815260200190815260200160002060008201518160000160006101000a81548173ffffffffffffffffffffffffffffffffffffffff021916908373ffffffffffffffffffffffffffffffffffffffff16021790555060208201518160010160006101000a81548173ffffffffffffffffffffffffffffffffffffffff021916908373ffffffffffffffffffffffffffffffffffffffff160217905550604082015181600201908161048c9190611151565b506060820151816003015560808201518160040160006101000a81548160ff02191690831515021790555060a0820151816005015560c082015181600601559050503373ffffffffffffffffffffffffffffffffffffffff16817f81587c9e5a0aabbf4bcd8148b4cb2916202290ff12b7af86c0afb92cc1bacc65886040516105159190610e07565b60405180910390a380915050949350505050565b600080600084815260200190815260200160002090508060040160009054906101000a900460ff16610590576040517f08c379a00000000000000000000000000000000000000000000000000000000081526004016105879061126f565b60405180910390fd5b60003a8361059e919061128f565b905080826003015410156105e7576040517f08c379a00000000000000000000000000000000000000000000000000000000081526004016105de9061131d565b60405180910390fd5b808260030160008282546105fb919061133d565b925050819055504282600501819055503373ffffffffffffffffffffffffffffffffffffffff166108fc829081150290604051600060405180830381858888f19350505050158015610651573d6000803e3d6000fd5b50837f9fbc2aeb5bf6200e5499d345acddf1dd462c37becb4673d661250b89ced7ff6a846040516106829190610ca6565b60405180910390a250505050565b60015481565b60006020528060005260406000206000915090508060000160009054906101000a900473ffffffffffffffffffffffffffffffffffffffff16908060010160009054906101000a900473ffffffffffffffffffffffffffffffffffffffff169080600201805461070590610f74565b80601f016020809104026020016040519081016040528092919081815260200182805461073190610f74565b801561077e5780601f106107535761010080835404028352916020019161077e565b820191906000526020600020905b81548152906001019060200180831161076157829003601f168201915b5050505050908060030154908060040160009054906101000a900460ff16908060050154908060060154905087565b600360009054906101000a900473ffffffffffffffffffffffffffffffffffffffff1681565b60025481565b60008082815260200190815260200160002060040160009054906101000a900460ff1661083b576040517f08c379a00000000000000000000000000000000000000000000000000000000081526004016108329061126f565b60405180910390fd5b3460008083815260200190815260200160002060030160008282546108609190611371565b92505081905550807ff5e4934928a1e45d88c7a5aa2661fe0a801ca5017922e15122d74f1880155e1a346040516108979190610ca6565b60405180910390a250565b600080600083815260200190815260200160002090508060000160009054906101000a900473ffffffffffffffffffffffffffffffffffffffff1673ffffffffffffffffffffffffffffffffffffffff163373ffffffffffffffffffffffffffffffffffffffff161461094a576040517f08c379a0000000000000000000000000000000000000000000000000000000008152600401610941906113f1565b60405180910390fd5b8060040160009054906101000a900460ff1661099b576040517f08c379a00000000000000000000000000000000000000000000000000000000081526004016109929061145d565b60405180910390fd5b60008160040160006101000a81548160ff021916908315150217905550600081600301549050600082600301819055508160000160009054906101000a900473ffffffffffffffffffffffffffffffffffffffff1673ffffffffffffffffffffffffffffffffffffffff166108fc829081150290604051600060405180830381858888f19350505050158015610a35573d6000803e3d6000fd5b50827fa8d8937df02c88ee443e3a549ab8653fbc3dfdc901e9426a1e50e06125c6bb0760405160405180910390a2505050565b600080fd5b600080fd5b6000819050919050565b610a8581610a72565b8114610a9057600080fd5b50565b600081359050610aa281610a7c565b92915050565b600060208284031215610abe57610abd610a68565b5b6000610acc84828501610a93565b91505092915050565b600073ffffffffffffffffffffffffffffffffffffffff82169050919050565b6000610b0082610ad5565b9050919050565b610b1081610af5565b82525050565b610b1f81610a72565b82525050565b60008115159050919050565b610b3a81610b25565b82525050565b600060c082019050610b556000830189610b07565b610b626020830188610b07565b610b6f6040830187610b16565b610b7c6060830186610b31565b610b896080830185610b16565b610b9660a0830184610b16565b979650505050505050565b610baa81610af5565b8114610bb557600080fd5b50565b600081359050610bc781610ba1565b92915050565b600080fd5b600080fd5b600080fd5b60008083601f840112610bf257610bf1610bcd565b5b8235905067ffffffffffffffff811115610c0f57610c0e610bd2565b5b602083019150836001820283011115610c2b57610c2a610bd7565b5b9250929050565b60008060008060608587031215610c4c57610c4b610a68565b5b6000610c5a87828801610bb8565b945050602085013567ffffffffffffffff811115610c7b57610c7a610a6d565b5b610c8787828801610bdc565b93509350506040610c9a87828801610a93565b91505092959194509250565b6000602082019050610cbb6000830184610b16565b92915050565b60008060408385031215610cd857610cd7610a68565b5b6000610ce685828601610a93565b9250506020610cf785828601610a93565b9150509250929050565b600081519050919050565b600082825260208201905092915050565b60005b83811015610d3b578082015181840152602081019050610d20565b60008484015250505050565b6000601f19601f8301169050919050565b6000610d6382610d01565b610d6d8185610d0c565b9350610d7d818560208601610d1d565b610d8681610d47565b840191505092915050565b600060e082019050610da6600083018a610b07565b610db36020830189610b07565b8181036040830152610dc58188610d58565b9050610dd46060830187610b16565b610de16080830186610b31565b610dee60a0830185610b16565b610dfb60c0830184610b16565b98975050505050505050565b6000602082019050610e1c6000830184610b07565b92915050565b600082825260208201905092915050565b7f496e73756666696369656e742066756e64696e67000000000000000000000000600082015250565b6000610e69601483610e22565b9150610e7482610e33565b602082019050919050565b60006020820190508181036000830152610e9881610e5c565b9050919050565b7f4e487b7100000000000000000000000000000000000000000000000000000000600052601160045260246000fd5b6000610ed982610a72565b91507fffffffffffffffffffffffffffffffffffffffffffffffffffffffffffffffff8203610f0b57610f0a610e9f565b5b600182019050919050565b7f4e487b7100000000000000000000000000000000000000000000000000000000600052604160045260246000fd5b7f4e487b7100000000000000000000000000000000000000000000000000000000600052602260045260246000fd5b60006002820490506001821680610f8c57607f821691505b602082108103610f9f57610f9e610f45565b5b50919050565b60008190508160005260206000209050919050565b60006020601f8301049050919050565b600082821b905092915050565b6000600883026110077fffffffffffffffffffffffffffffffffffffffffffffffffffffffffffffffff82610fca565b6110118683610fca565b95508019841693508086168417925050509392505050565b6000819050919050565b600061104e61104961104484610a72565b611029565b610a72565b9050919050565b6000819050919050565b61106883611033565b61107c61107482611055565b848454610fd7565b825550505050565b600090565b611091611084565b61109c81848461105f565b505050565b5b818110156110c0576110b5600082611089565b6001810190506110a2565b5050565b601f821115611105576110d681610fa5565b6110df84610fba565b810160208510156110ee578190505b6111026110fa85610fba565b8301826110a1565b50505b505050565b600082821c905092915050565b60006111286000198460080261110a565b1980831691505092915050565b60006111418383611117565b9150826002028217905092915050565b61115a82610d01565b67ffffffffffffffff81111561117357611172610f16565b5b61117d8254610f74565b6111888282856110c4565b600060209050601f8311600181146111bb57600084156111a9578287015190505b6111b38582611135565b86555061121b565b601f1984166111c986610fa5565b60005b828110156111f1578489015182556001820191506020850194506020810190506111cc565b8683101561120e578489015161120a601f891682611117565b8355505b6001600288020188555050505b505050505050565b7f55706b656570206e6f7420616374697665000000000000000000000000000000600082015250565b6000611259601183610e22565b915061126482611223565b602082019050919050565b600060208201905081810360008301526112888161124c565b9050919050565b600061129a82610a72565b91506112a583610a72565b92508282026112b381610a72565b915082820484148315176112ca576112c9610e9f565b5b5092915050565b7f496e73756666696369656e742066756e64730000000000000000000000000000600082015250565b6000611307601283610e22565b9150611312826112d1565b602082019050919050565b60006020820190508181036000830152611336816112fa565b9050919050565b600061134882610a72565b915061135383610a72565b925082820390508181111561136b5761136a610e9f565b5b92915050565b600061137c82610a72565b915061138783610a72565b925082820190508082111561139f5761139e610e9f565b5b92915050565b7f4f6e6c79206f776e65722063616e2063616e63656c0000000000000000000000600082015250565b60006113db601583610e22565b91506113e6826113a5565b602082019050919050565b6000602082019050818103600083015261140a816113ce565b9050919050565b7f55706b65657020616c72656164792063616e63656c6c65640000000000000000600082015250565b6000611447601883610e22565b915061145282611411565b602082019050919050565b600060208201905081810360008301526114768161143a565b905091905056fea2646970667358221220c2f426e9ed8c80d5ec4a35844b84e64fb0551e9f833eb42561d05e6b90e9b53464736f6c63430008140033","opcodes":"PUSH1 0x80 PUSH1 0x40 MSTORE CALLVALUE DUP1 ISZERO PUSH3 0x11 JUMPI PUSH1 0x0 DUP1 REVERT JUMPDEST POP PUSH1 0x40 MLOAD PUSH3 0x15BB CODESIZE SUB DUP1 PUSH3 0x15BB DUP4 CODECOPY DUP2 DUP2 ADD PUSH1 0x40 MSTORE DUP2 ADD SWAP1 PUSH3 0x37 SWAP2 SWAP1 PUSH3 0xC6 JUMP JUMPDEST CALLER PUSH1 0x3 PUSH1 0x0 PUSH2 0x100 EXP DUP2 SLOAD DUP2 PUSH20 0xFFFFFFFFFFFFFFFFFFFFFFFFFFFFFFFFFFFFFFFF MUL NOT AND SWAP1 DUP4 PUSH20 0xFFFFFFFFFFFFFFFFFFFFFFFFFFFFFFFFFFFFFFFF AND MUL OR SWAP1 SSTORE POP DUP1 PUSH1 0x2 DUP2 SWAP1 SSTORE POP POP PUSH3 0xF8 JUMP JUMPDEST PUSH1 0x0 DUP1 REVERT JUMPDEST PUSH1 0x0 DUP2 SWAP1 POP SWAP2 SWAP1 POP JUMP JUMPDEST PUSH3 0xA0 DUP2 PUSH3 0x8B JUMP JUMPDEST DUP2 EQ PUSH3 0xAC JUMPI PUSH1 0x0 DUP1 REVERT JUMPDEST POP JUMP JUMPDEST PUSH1 0x0 DUP2 MLOAD SWAP1 POP PUSH3 0xC0 DUP2 PUSH3 0x95 JUMP JUMPDEST SWAP3 SWAP2 POP POP JUMP JUMPDEST PUSH1 0x0 PUSH1 0x20 DUP3 DUP5 SUB SLT ISZERO PUSH3 0xDF JUMPI PUSH3 0xDE PUSH3 0x86 JUMP JUMPDEST JUMPDEST PUSH1 0x0 PUSH3 0xEF DUP5 DUP3 DUP6 ADD PUSH3 0xAF JUMP JUMPDEST SWAP2 POP POP SWAP3 SWAP2 POP POP JUMP JUMPDEST PUSH2 0x14B3 DUP1 PUSH3 0x108 PUSH1 0x0 CODECOPY PUSH1 0x0 RETURN INVALID PUSH1 0x80 PUSH1 0x40 MSTORE PUSH1 0x4 CALLDATASIZE LT PUSH2 0x86 JUMPI PUSH1 0x0 CALLDATALOAD PUSH1 0xE0 SHR DUP1 PUSH4 0x8BE59218 GT PUSH2 0x59 JUMPI DUP1 PUSH4 0x8BE59218 EQ PUSH2 0x151 JUMPI DUP1 PUSH4 0x8DA5CB5B EQ PUSH2 0x194 JUMPI DUP1 PUSH4 0x8DDA5462 EQ PUSH2 0x1BF JUMPI DUP1 PUSH4 0xBE999705 EQ PUSH2 0x1EA JUMPI DUP1 PUSH4 0xC8048022 EQ PUSH2 0x206 JUMPI PUSH2 0x86 JUMP JUMPDEST DUP1 PUSH4 0x29E0A841 EQ PUSH2 0x8B JUMPI DUP1 PUSH4 0x46B7707D EQ PUSH2 0xCD JUMPI DUP1 PUSH4 0x56952B1A EQ PUSH2 0xFD JUMPI DUP1 PUSH4 0x7323F3D0 EQ PUSH2 0x126 JUMPI JUMPDEST PUSH1 0x0 DUP1 REVERT JUMPDEST CALLVALUE DUP1 ISZERO PUSH2 0x97 JUMPI PUSH1 0x0 DUP1 REVERT JUMPDEST POP PUSH2 0xB2 PUSH1 0x4 DUP1 CALLDATASIZE SUB DUP2 ADD SWAP1 PUSH2 0xAD SWAP2 SWAP1 PUSH2 0xAA8 JUMP JUMPDEST PUSH2 0x22F JUMP JUMPDEST PUSH1 0x40 MLOAD PUSH2 0xC4 SWAP7 SWAP6 SWAP5 SWAP4 SWAP3 SWAP2 SWAP1 PUSH2 0xB40 JUMP JUMPDEST PUSH1 0x40 MLOAD DUP1 SWAP2 SUB SWAP1 RETURN JUMPDEST PUSH2 0xE7 PUSH1 0x4 DUP1 CALLDATASIZE SUB DUP2 ADD SWAP1 PUSH2 0xE2 SWAP2 SWAP1 PUSH2 0xC32 JUMP JUMPDEST PUSH2 0x2CF JUMP JUMPDEST PUSH1 0x40 MLOAD PUSH2 0xF4 SWAP2 SWAP1 PUSH2 0xCA6 JUMP JUMPDEST PUSH1 0x40 MLOAD DUP1 SWAP2 SUB SWAP1 RETURN JUMPDEST CALLVALUE DUP1 ISZERO PUSH2 0x109 JUMPI PUSH1 0x0 DUP1 REVERT JUMPDEST POP PUSH2 0x124 PUSH1 0x4 DUP1 CALLDATASIZE SUB DUP2 ADD SWAP1 PUSH2 0x11F SWAP2 SWAP1 PUSH2 0xCC1 JUMP JUMPDEST PUSH2 0x529 JUMP JUMPDEST STOP JUMPDEST CALLVALUE DUP1 ISZERO PUSH2 0x132 JUMPI PUSH1 0x0 DUP1 REVERT JUMPDEST POP PUSH2 0x13B PUSH2 0x690 JUMP JUMPDEST PUSH1 0x40 MLOAD PUSH2 0x148 SWAP2 SWAP1 PUSH2 0xCA6 JUMP JUMPDEST PUSH1 0x40 MLOAD DUP1 SWAP2 SUB SWAP1 RETURN JUMPDEST CALLVALUE DUP1 ISZERO PUSH2 0x15D JUMPI PUSH1 0x0 DUP1 REVERT JUMPDEST POP PUSH2 0x178 PUSH1 0x4 DUP1 CALLDATASIZE SUB DUP2 ADD SWAP1 PUSH2 0x173 SWAP2 SWAP1 PUSH2 0xAA8 JUMP JUMPDEST PUSH2 0x696 JUMP JUMPDEST PUSH1 0x40 MLOAD PUSH2 0x18B SWAP8 SWAP7 SWAP6 SWAP5 SWAP4 SWAP3 SWAP2 SWAP1 PUSH2 0xD91 JUMP JUMPDEST PUSH1 0x40 MLOAD DUP1 SWAP2 SUB SWAP1 RETURN JUMPDEST CALLVALUE DUP1 ISZERO PUSH2 0x1A0 JUMPI PUSH1 0x0 DUP1 REVERT JUMPDEST POP PUSH2 0x1A9 PUSH2 0x7AD JUMP JUMPDEST PUSH1 0x40 MLOAD PUSH2 0x1B6 SWAP2 SWAP1 PUSH2 0xE07 JUMP JUMPDEST PUSH1 0x40 MLOAD DUP1 SWAP2 SUB SWAP1 RETURN JUMPDEST CALLVALUE DUP1 ISZERO PUSH2 0x1CB JUMPI PUSH1 0x0 DUP1 REVERT JUMPDEST POP PUSH2 0x1D4 PUSH2 0x7D3 JUMP JUMPDEST PUSH1 0x40 MLOAD PUSH2 0x1E1 SWAP2 SWAP1 PUSH2 0xCA6 JUMP JUMPDEST PUSH1 0x40 MLOAD DUP1 SWAP2 SUB SWAP1 RETURN JUMPDEST PUSH2 0x204 PUSH1 0x4 DUP1 CALLDATASIZE SUB DUP2 ADD SWAP1 PUSH2 0x1FF SWAP2 SWAP1 PUSH2 0xAA8 JUMP JUMPDEST PUSH2 0x7D9 JUMP JUMPDEST STOP JUMPDEST CALLVALUE DUP1 ISZERO PUSH2 0x212 JUMPI PUSH1 0x0 DUP1 REVERT JUMPDEST POP PUSH2 0x22D PUSH1 0x4 DUP1 CALLDATASIZE SUB DUP2 ADD SWAP1 PUSH2 0x228 SWAP2 SWAP1 PUSH2 0xAA8 JUMP JUMPDEST PUSH2 0x8A2 JUMP JUMPDEST STOP JUMPDEST PUSH1 0x0 DUP1 PUSH1 0x0 DUP1 PUSH1 0x0 DUP1 PUSH1 0x0 DUP1 PUSH1 0x0 DUP10 DUP2 MSTORE PUSH1 0x20 ADD SWAP1 DUP2 MSTORE PUSH1 0x20 ADD PUSH1 0x0 KECCAK256 SWAP1 POP DUP1 PUSH1 0x0 ADD PUSH1 0x0 SWAP1 SLOAD SWAP1 PUSH2 0x100 EXP SWAP1 DIV PUSH20 0xFFFFFFFFFFFFFFFFFFFFFFFFFFFFFFFFFFFFFFFF AND DUP2 PUSH1 0x1 ADD PUSH1 0x0 SWAP1 SLOAD SWAP1 PUSH2 0x100 EXP SWAP1 DIV PUSH20 0xFFFFFFFFFFFFFFFFFFFFFFFFFFFFFFFFFFFFFFFF AND DUP3 PUSH1 0x3 ADD SLOAD DUP4 PUSH1 0x4 ADD PUSH1 0x0 SWAP1 SLOAD SWAP1 PUSH2 0x100 EXP SWAP1 DIV PUSH1 0xFF AND DUP5 PUSH1 0x5 ADD SLOAD DUP6 PUSH1 0x6 ADD SLOAD SWAP7 POP SWAP7 POP SWAP7 POP SWAP7 POP SWAP7 POP SWAP7 POP POP SWAP2 SWAP4 SWAP6 POP SWAP2 SWAP4 SWAP6 JUMP JUMPDEST PUSH1 0x0 PUSH1 0x2 SLOAD CALLVALUE LT ISZERO PUSH2 0x316 JUMPI PUSH1 0x40 MLOAD PUSH32 0x8C379A000000000000000000000000000000000000000000000000000000000 DUP2 MSTORE PUSH1 0x4 ADD PUSH2 0x30D SWAP1 PUSH2 0xE7F JUMP JUMPDEST PUSH1 0x40 MLOAD DUP1 SWAP2 SUB SWAP1 REVERT JUMPDEST PUSH1 0x0 PUSH1 0x1 PUSH1 0x0 DUP2 SLOAD DUP1 SWAP3 SWAP2 SWAP1 PUSH2 0x32B SWAP1 PUSH2 0xECE JUMP JUMPDEST SWAP2 SWAP1 POP SSTORE SWAP1 POP PUSH1 0x40 MLOAD DUP1 PUSH1 0xE0 ADD PUSH1 0x40 MSTORE DUP1 CALLER PUSH20 0xFFFFFFFFFFFFFFFFFFFFFFFFFFFFFFFFFFFFFFFF AND DUP2 MSTORE PUSH1 0x20 ADD DUP8 PUSH20 0xFFFFFFFFFFFFFFFFFFFFFFFFFFFFFFFFFFFFFFFF AND DUP2 MSTORE PUSH1 0x20 ADD DUP7 DUP7 DUP1 DUP1 PUSH1 0x1F ADD PUSH1 0x20 DUP1 SWAP2 DIV MUL PUSH1 0x20 ADD PUSH1 0x40 MLOAD SWAP1 DUP2 ADD PUSH1 0x40 MSTORE DUP1 SWAP4 SWAP3 SWAP2 SWAP1 DUP2 DUP2 MSTORE PUSH1 0x20 ADD DUP4 DUP4 DUP1 DUP3 DUP5 CALLDATACOPY PUSH1 0x0 DUP2 DUP5 ADD MSTORE PUSH1 0x1F NOT PUSH1 0x1F DUP3 ADD AND SWAP1 POP DUP1 DUP4 ADD SWAP3 POP POP POP POP POP POP POP DUP2 MSTORE PUSH1 0x20 ADD CALLVALUE DUP2 MSTORE PUSH1 0x20 ADD PUSH1 0x1 ISZERO ISZERO DUP2 MSTORE PUSH1 0x20 ADD TIMESTAMP DUP2 MSTORE PUSH1 0x20 ADD DUP5 DUP2 MSTORE POP PUSH1 0x0 DUP1 DUP4 DUP2 MSTORE PUSH1 0x20 ADD SWAP1 DUP2 MSTORE PUSH1 0x20 ADD PUSH1 0x0 KECCAK256 PUSH1 0x0 DUP3 ADD MLOAD DUP2 PUSH1 0x0 ADD PUSH1 0x0 PUSH2 0x100 EXP DUP2 SLOAD DUP2 PUSH20 0xFFFFFFFFFFFFFFFFFFFFFFFFFFFFFFFFFFFFFFFF MUL NOT AND SWAP1 DUP4 PUSH20 0xFFFFFFFFFFFFFFFFFFFFFFFFFFFFFFFFFFFFFFFF AND MUL OR SWAP1 SSTORE POP PUSH1 0x20 DUP3 ADD MLOAD DUP2 PUSH1 0x1 ADD PUSH1 0x0 PUSH2 0x100 EXP DUP2 SLOAD DUP2 PUSH20 0xFFFFFFFFFFFFFFFFFFFFFFFFFFFFFFFFFFFFFFFF MUL NOT AND SWAP1 DUP4 PUSH20 0xFFFFFFFFFFFFFFFFFFFFFFFFFFFFFFFFFFFFFFFF AND MUL OR SWAP1 SSTORE POP PUSH1 0x40 DUP3 ADD MLOAD DUP2 PUSH1 0x2 ADD SWAP1 DUP2 PUSH2 0x48C SWAP2 SWAP1 PUSH2 0x1151 JUMP JUMPDEST POP PUSH1 0x60 DUP3 ADD MLOAD DUP2 PUSH1 0x3 ADD SSTORE PUSH1 0x80 DUP3 ADD MLOAD DUP2 PUSH1 0x4 ADD PUSH1 0x0 PUSH2 0x100 EXP DUP2 SLOAD DUP2 PUSH1 0xFF MUL NOT AND SWAP1 DUP4 ISZERO ISZERO MUL OR SWAP1 SSTORE POP PUSH1 0xA0 DUP3 ADD MLOAD DUP2 PUSH1 0x5 ADD SSTORE PUSH1 0xC0 DUP3 ADD MLOAD DUP2 PUSH1 0x6 ADD SSTORE SWAP1 POP POP CALLER PUSH20 0xFFFFFFFFFFFFFFFFFFFFFFFFFFFFFFFFFFFFFFFF AND DUP2 PUSH32 0x81587C9E5A0AABBF4BCD8148B4CB2916202290FF12B7AF86C0AFB92CC1BACC65 DUP9 PUSH1 0x40 MLOAD PUSH2 0x515 SWAP2 SWAP1 PUSH2 0xE07 JUMP JUMPDEST PUSH1 0x40 MLOAD DUP1 SWAP2 SUB SWAP1 LOG3 DUP1 SWAP2 POP POP SWAP5 SWAP4 POP POP POP POP JUMP JUMPDEST PUSH1 0x0 DUP1 PUSH1 0x0 DUP5 DUP2 MSTORE PUSH1 0x20 ADD SWAP1 DUP2 MSTORE PUSH1 0x20 ADD PUSH1 0x0 KECCAK256 SWAP1 POP DUP1 PUSH1 0x4 ADD PUSH1 0x0 SWAP1 SLOAD SWAP1 PUSH2 0x100 EXP SWAP1 DIV PUSH1 0xFF AND PUSH2 0x590 JUMPI PUSH1 0x40 MLOAD PUSH32 0x8C379A000000000000000000000000000000000000000000000000000000000 DUP2 MSTORE PUSH1 0x4 ADD PUSH2 0x587 SWAP1 PUSH2 0x126F JUMP JUMPDEST PUSH1 0x40 MLOAD DUP1 SWAP2 SUB SWAP1 REVERT JUMPDEST PUSH1 0x0 GASPRICE DUP4 PUSH2 0x59E SWAP2 SWAP1 PUSH2 0x128F JUMP JUMPDEST SWAP1 POP DUP1 DUP3 PUSH1 0x3 ADD SLOAD LT ISZERO PUSH2 0x5E7 JUMPI PUSH1 0x40 MLOAD PUSH32 0x8C379A000000000000000000000000000000000000000000000000000000000 DUP2 MSTORE PUSH1 0x4 ADD PUSH2 0x5DE SWAP1 PUSH2 0x131D JUMP JUMPDEST PUSH1 0x40 MLOAD DUP1 SWAP2 SUB SWAP1 REVERT JUMPDEST DUP1 DUP3 PUSH1 0x3 ADD PUSH1 0x0 DUP3 DUP3 SLOAD PUSH2 0x5FB SWAP2 SWAP1 PUSH2 0x133D JUMP JUMPDEST SWAP3 POP POP DUP2 SWAP1 SSTORE POP TIMESTAMP DUP3 PUSH1 0x5 ADD DUP2 SWAP1 SSTORE POP CALLER PUSH20 0xFFFFFFFFFFFFFFFFFFFFFFFFFFFFFFFFFFFFFFFF AND PUSH2 0x8FC DUP3 SWAP1 DUP2 ISZERO MUL SWAP1 PUSH1 0x40 MLOAD PUSH1 0x0 PUSH1 0x40 MLOAD DUP1 DUP4 SUB DUP2 DUP6 DUP9 DUP9 CALL SWAP4 POP POP POP POP ISZERO DUP1 ISZERO PUSH2 0x651 JUMPI RETURNDATASIZE PUSH1 0x0 DUP1 RETURNDATACOPY RETURNDATASIZE PUSH1 0x0 REVERT JUMPDEST POP DUP4 PUSH32 0x9FBC2AEB5BF6200E5499D345ACDDF1DD462C37BECB4673D661250B89CED7FF6A DUP5 PUSH1 0x40 MLOAD PUSH2 0x682 SWAP2 SWAP1 PUSH2 0xCA6 JUMP JUMPDEST PUSH1 0x40 MLOAD DUP1 SWAP2 SUB SWAP1 LOG2 POP POP POP POP JUMP JUMPDEST PUSH1 0x1 SLOAD DUP2 JUMP JUMPDEST PUSH1 0x0 PUSH1 0x20 MSTORE DUP1 PUSH1 0x0 MSTORE PUSH1 0x40 PUSH1 0x0 KECCAK256 PUSH1 0x0 SWAP2 POP SWAP1 POP DUP1 PUSH1 0x0 ADD PUSH1 0x0 SWAP1 SLOAD SWAP1 PUSH2 0x100 EXP SWAP1 DIV PUSH20 0xFFFFFFFFFFFFFFFFFFFFFFFFFFFFFFFFFFFFFFFF AND SWAP1 DUP1 PUSH1 0x1 ADD PUSH1 0x0 SWAP1 SLOAD SWAP1 PUSH2 0x100 EXP SWAP1 DIV PUSH20 0xFFFFFFFFFFFFFFFFFFFFFFFFFFFFFFFFFFFFFFFF AND SWAP1 DUP1 PUSH1 0x2 ADD DUP1 SLOAD PUSH2 0x705 SWAP1 PUSH2 0xF74 JUMP JUMPDEST DUP1 PUSH1 0x1F ADD PUSH1 0x20 DUP1 SWAP2 DIV MUL PUSH1 0x20 ADD PUSH1 0x40 MLOAD SWAP1 DUP2 ADD PUSH1 0x40 MSTORE DUP1 SWAP3 SWAP2 SWAP1 DUP2 DUP2 MSTORE PUSH1 0x20 ADD DUP3 DUP1 SLOAD PUSH2 0x731 SWAP1 PUSH2 0xF74 JUMP JUMPDEST DUP1 ISZERO PUSH2 0x77E JUMPI DUP1 PUSH1 0x1F LT PUSH2 0x753 JUMPI PUSH2 0x100 DUP1 DUP4 SLOAD DIV MUL DUP4 MSTORE SWAP2 PUSH1 0x20 ADD SWAP2 PUSH2 0x77E JUMP JUMPDEST DUP3 ADD SWAP2 SWAP1 PUSH1 0x0 MSTORE PUSH1 0x20 PUSH1 0x0 KECCAK256 SWAP1 JUMPDEST DUP2 SLOAD DUP2 MSTORE SWAP1 PUSH1 0x1 ADD SWAP1 PUSH1 0x20 ADD DUP1 DUP4 GT PUSH2 0x761 JUMPI DUP3 SWAP1 SUB PUSH1 0x1F AND DUP3 ADD SWAP2 JUMPDEST POP POP POP POP POP SWAP1 DUP1 PUSH1 0x3 ADD SLOAD SWAP1 DUP1 PUSH1 0x4 ADD PUSH1 0x0 SWAP1 SLOAD SWAP1 PUSH2 0x100 EXP SWAP1 DIV PUSH1 0xFF AND SWAP1 DUP1 PUSH1 0x5 ADD SLOAD SWAP1 DUP1 PUSH1 0x6 ADD SLOAD SWAP1 POP DUP8 JUMP JUMPDEST PUSH1 0x3 PUSH1 0x0 SWAP1 SLOAD SWAP1 PUSH2 0x100 EXP SWAP1 DIV PUSH20 0xFFFFFFFFFFFFFFFFFFFFFFFFFFFFFFFFFFFFFFFF AND DUP2 JUMP JUMPDEST PUSH1 0x2 SLOAD DUP2 JUMP JUMPDEST PUSH1 0x0 DUP1 DUP3 DUP2 MSTORE PUSH1 0x20 ADD SWAP1 DUP2 MSTORE PUSH1 0x20 ADD PUSH1 0x0 KECCAK256 PUSH1 0x4 ADD PUSH1 0x0 SWAP1 SLOAD SWAP1 PUSH2 0x100 EXP SWAP1 DIV PUSH1 0xFF AND PUSH2 0x83B JUMPI PUSH1 0x40 MLOAD PUSH32 0x8C379A000000000000000000000000000000000000000000000000000000000 DUP2 MSTORE PUSH1 0x4 ADD PUSH2 0x832 SWAP1 PUSH2 0x126F JUMP JUMPDEST PUSH1 0x40 MLOAD DUP1 SWAP2 SUB SWAP1 REVERT JUMPDEST CALLVALUE PUSH1 0x0 DUP1 DUP4 DUP2 MSTORE PUSH1 0x20 ADD SWAP1 DUP2 MSTORE PUSH1 0x20 ADD PUSH1 0x0 KECCAK256 PUSH1 0x3 ADD PUSH1 0x0 DUP3 DUP3 SLOAD PUSH2 0x860 SWAP2 SWAP1 PUSH2 0x1371 JUMP JUMPDEST SWAP3 POP POP DUP2 SWAP1 SSTORE POP DUP1 PUSH32 0xF5E4934928A1E45D88C7A5AA2661FE0A801CA5017922E15122D74F1880155E1A CALLVALUE PUSH1 0x40 MLOAD PUSH2 0x897 SWAP2 SWAP1 PUSH2 0xCA6 JUMP JUMPDEST PUSH1 0x40 MLOAD DUP1 SWAP2 SUB SWAP1 LOG2 POP JUMP JUMPDEST PUSH1 0x0 DUP1 PUSH1 0x0 DUP4 DUP2 MSTORE PUSH1 0x20 ADD SWAP1 DUP2 MSTORE PUSH1 0x20 ADD PUSH1 0x0 KECCAK256 SWAP1 POP DUP1 PUSH1 0x0 ADD PUSH1 0x0 SWAP1 SLOAD SWAP1 PUSH2 0x100 EXP SWAP1 DIV PUSH20 0xFFFFFFFFFFFFFFFFFFFFFFFFFFFFFFFFFFFFFFFF AND PUSH20 0xFFFFFFFFFFFFFFFFFFFFFFFFFFFFFFFFFFFFFFFF AND CALLER PUSH20 0xFFFFFFFFFFFFFFFFFFFFFFFFFFFFFFFFFFFFFFFF AND EQ PUSH2 0x94A JUMPI PUSH1 0x40 MLOAD PUSH32 0x8C379A000000000000000000000000000000000000000000000000000000000 DUP2 MSTORE PUSH1 0x4 ADD PUSH2 0x941 SWAP1 PUSH2 0x13F1 JUMP JUMPDEST PUSH1 0x40 MLOAD DUP1 SWAP2 SUB SWAP1 REVERT JUMPDEST DUP1 PUSH1 0x4 ADD PUSH1 0x0 SWAP1 SLOAD SWAP1 PUSH2 0x100 EXP SWAP1 DIV PUSH1 0xFF AND PUSH2 0x99B JUMPI PUSH1 0x40 MLOAD PUSH32 0x8C379A000000000000000000000000000000000000000000000000000000000 DUP2 MSTORE PUSH1 0x4 ADD PUSH2 0x992 SWAP1 PUSH2 0x145D JUMP JUMPDEST PUSH1 0x40 MLOAD DUP1 SWAP2 SUB SWAP1 REVERT JUMPDEST PUSH1 0x0 DUP2 PUSH1 0x4 ADD PUSH1 0x0 PUSH2 0x100 EXP DUP2 SLOAD DUP2 PUSH1 0xFF MUL NOT AND SWAP1 DUP4 ISZERO ISZERO MUL OR SWAP1 SSTORE POP PUSH1 0x0 DUP2 PUSH1 0x3 ADD SLOAD SWAP1 POP PUSH1 0x0 DUP3 PUSH1 0x3 ADD DUP2 SWAP1 SSTORE POP DUP2 PUSH1 0x0 ADD PUSH1 0x0 SWAP1 SLOAD SWAP1 PUSH2 0x100 EXP SWAP1 DIV PUSH20 0xFFFFFFFFFFFFFFFFFFFFFFFFFFFFFFFFFFFFFFFF AND PUSH20 0xFFFFFFFFFFFFFFFFFFFFFFFFFFFFFFFFFFFFFFFF AND PUSH2 0x8FC DUP3 SWAP1 DUP2 ISZERO MUL SWAP1 PUSH1 0x40 MLOAD PUSH1 0x0 PUSH1 0x40 MLOAD DUP1 DUP4 SUB DUP2 DUP6 DUP9 DUP9 CALL SWAP4 POP POP POP POP ISZERO DUP1 ISZERO PUSH2 0xA35 JUMPI RETURNDATASIZE PUSH1 0x0 DUP1 RETURNDATACOPY RETURNDATASIZE PUSH1 0x0 REVERT JUMPDEST POP DUP3 PUSH32 0xA8D8937DF02C88EE443E3A549AB8653FBC3DFDC901E9426A1E50E06125C6BB07 PUSH1 0x40 MLOAD PUSH1 0x40 MLOAD DUP1 SWAP2 SUB SWAP1 LOG2 POP POP POP JUMP JUMPDEST PUSH1 0x0 DUP1 REVERT JUMPDEST PUSH1 0x0 DUP1 REVERT JUMPDEST PUSH1 0x0 DUP2 SWAP1 POP SWAP2 SWAP1 POP JUMP JUMPDEST PUSH2 0xA85 DUP2 PUSH2 0xA72 JUMP JUMPDEST DUP2 EQ PUSH2 0xA90 JUMPI PUSH1 0x0 DUP1 REVERT JUMPDEST POP JUMP JUMPDEST PUSH1 0x0 DUP2 CALLDATALOAD SWAP1 POP PUSH2 0xAA2 DUP2 PUSH2 0xA7C JUMP JUMPDEST SWAP3 SWAP2 POP POP JUMP JUMPDEST PUSH1 0x0 PUSH1 0x20 DUP3 DUP5 SUB SLT ISZERO PUSH2 0xABE JUMPI PUSH2 0xABD PUSH2 0xA68 JUMP JUMPDEST JUMPDEST PUSH1 0x0 PUSH2 0xACC DUP5 DUP3 DUP6 ADD PUSH2 0xA93 JUMP JUMPDEST SWAP2 POP POP SWAP3 SWAP2 POP POP JUMP JUMPDEST PUSH1 0x0 PUSH20 0xFFFFFFFFFFFFFFFFFFFFFFFFFFFFFFFFFFFFFFFF DUP3 AND SWAP1 POP SWAP2 SWAP1 POP JUMP JUMPDEST PUSH1 0x0 PUSH2 0xB00 DUP3 PUSH2 0xAD5 JUMP JUMPDEST SWAP1 POP SWAP2 SWAP1 POP JUMP JUMPDEST PUSH2 0xB10 DUP2 PUSH2 0xAF5 JUMP JUMPDEST DUP3 MSTORE POP POP JUMP JUMPDEST PUSH2 0xB1F DUP2 PUSH2 0xA72 JUMP JUMPDEST DUP3 MSTORE POP POP JUMP JUMPDEST PUSH1 0x0 DUP2 ISZERO ISZERO SWAP1 POP SWAP2 SWAP1 POP JUMP JUMPDEST PUSH2 0xB3A DUP2 PUSH2 0xB25 JUMP JUMPDEST DUP3 MSTORE POP POP JUMP JUMPDEST PUSH1 0x0 PUSH1 0xC0 DUP3 ADD SWAP1 POP PUSH2 0xB55 PUSH1 0x0 DUP4 ADD DUP10 PUSH2 0xB07 JUMP JUMPDEST PUSH2 0xB62 PUSH1 0x20 DUP4 ADD DUP9 PUSH2 0xB07 JUMP JUMPDEST PUSH2 0xB6F PUSH1 0x40 DUP4 ADD DUP8 PUSH2 0xB16 JUMP JUMPDEST PUSH2 0xB7C PUSH1 0x60 DUP4 ADD DUP7 PUSH2 0xB31 JUMP JUMPDEST PUSH2 0xB89 PUSH1 0x80 DUP4 ADD DUP6 PUSH2 0xB16 JUMP JUMPDEST PUSH2 0xB96 PUSH1 0xA0 DUP4 ADD DUP5 PUSH2 0xB16 JUMP JUMPDEST SWAP8 SWAP7 POP POP POP POP POP POP POP JUMP JUMPDEST PUSH2 0xBAA DUP2 PUSH2 0xAF5 JUMP JUMPDEST DUP2 EQ PUSH2 0xBB5 JUMPI PUSH1 0x0 DUP1 REVERT JUMPDEST POP JUMP JUMPDEST PUSH1 0x0 DUP2 CALLDATALOAD SWAP1 POP PUSH2 0xBC7 DUP2 PUSH2 0xBA1 JUMP JUMPDEST SWAP3 SWAP2 POP POP JUMP JUMPDEST PUSH1 0x0 DUP1 REVERT JUMPDEST PUSH1 0x0 DUP1 REVERT JUMPDEST PUSH1 0x0 DUP1 REVERT JUMPDEST PUSH1 0x0 DUP1 DUP4 PUSH1 0x1F DUP5 ADD SLT PUSH2 0xBF2 JUMPI PUSH2 0xBF1 PUSH2 0xBCD JUMP JUMPDEST JUMPDEST DUP3 CALLDATALOAD SWAP1 POP PUSH8 0xFFFFFFFFFFFFFFFF DUP2 GT ISZERO PUSH2 0xC0F JUMPI PUSH2 0xC0E PUSH2 0xBD2 JUMP JUMPDEST JUMPDEST PUSH1 0x20 DUP4 ADD SWAP2 POP DUP4 PUSH1 0x1 DUP3 MUL DUP4 ADD GT ISZERO PUSH2 0xC2B JUMPI PUSH2 0xC2A PUSH2 0xBD7 JUMP JUMPDEST JUMPDEST SWAP3 POP SWAP3 SWAP1 POP JUMP JUMPDEST PUSH1 0x0 DUP1 PUSH1 0x0 DUP1 PUSH1 0x60 DUP6 DUP8 SUB SLT ISZERO PUSH2 0xC4C JUMPI PUSH2 0xC4B PUSH2 0xA68 JUMP JUMPDEST JUMPDEST PUSH1 0x0 PUSH2 0xC5A DUP8 DUP3 DUP9 ADD PUSH2 0xBB8 JUMP JUMPDEST SWAP5 POP POP PUSH1 0x20 DUP6 ADD CALLDATALOAD PUSH8 0xFFFFFFFFFFFFFFFF DUP2 GT ISZERO PUSH2 0xC7B JUMPI PUSH2 0xC7A PUSH2 0xA6D JUMP JUMPDEST JUMPDEST PUSH2 0xC87 DUP8 DUP3 DUP9 ADD PUSH2 0xBDC JUMP JUMPDEST SWAP4 POP SWAP4 POP POP PUSH1 0x40 PUSH2 0xC9A DUP8 DUP3 DUP9 ADD PUSH2 0xA93 JUMP JUMPDEST SWAP2 POP POP SWAP3 SWAP6 SWAP2 SWAP5 POP SWAP3 POP JUMP JUMPDEST PUSH1 0x0 PUSH1 0x20 DUP3 ADD SWAP1 POP PUSH2 0xCBB PUSH1 0x0 DUP4 ADD DUP5 PUSH2 0xB16 JUMP JUMPDEST SWAP3 SWAP2 POP POP JUMP JUMPDEST PUSH1 0x0 DUP1 PUSH1 0x40 DUP4 DUP6 SUB SLT ISZERO PUSH2 0xCD8 JUMPI PUSH2 0xCD7 PUSH2 0xA68 JUMP JUMPDEST JUMPDEST PUSH1 0x0 PUSH2 0xCE6 DUP6 DUP3 DUP7 ADD PUSH2 0xA93 JUMP JUMPDEST SWAP3 POP POP PUSH1 0x20 PUSH2 0xCF7 DUP6 DUP3 DUP7 ADD PUSH2 0xA93 JUMP JUMPDEST SWAP2 POP POP SWAP3 POP SWAP3 SWAP1 POP JUMP JUMPDEST PUSH1 0x0 DUP2 MLOAD SWAP1 POP SWAP2 SWAP1 POP JUMP JUMPDEST PUSH1 0x0 DUP3 DUP3 MSTORE PUSH1 0x20 DUP3 ADD SWAP1 POP SWAP3 SWAP2 POP POP JUMP JUMPDEST PUSH1 0x0 JUMPDEST DUP4 DUP2 LT ISZERO PUSH2 0xD3B JUMPI DUP1 DUP3 ADD MLOAD DUP2 DUP5 ADD MSTORE PUSH1 0x20 DUP2 ADD SWAP1 POP PUSH2 0xD20 JUMP JUMPDEST PUSH1 0x0 DUP5 DUP5 ADD MSTORE POP POP POP POP JUMP JUMPDEST PUSH1 0x0 PUSH1 0x1F NOT PUSH1 0x1F DUP4 ADD AND SWAP1 POP SWAP2 SWAP1 POP JUMP JUMPDEST PUSH1 0x0 PUSH2 0xD63 DUP3 PUSH2 0xD01 JUMP JUMPDEST PUSH2 0xD6D DUP2 DUP6 PUSH2 0xD0C JUMP JUMPDEST SWAP4 POP PUSH2 0xD7D DUP2 DUP6 PUSH1 0x20 DUP7 ADD PUSH2 0xD1D JUMP JUMPDEST PUSH2 0xD86 DUP2 PUSH2 0xD47 JUMP JUMPDEST DUP5 ADD SWAP2 POP POP SWAP3 SWAP2 POP POP JUMP JUMPDEST PUSH1 0x0 PUSH1 0xE0 DUP3 ADD SWAP1 POP PUSH2 0xDA6 PUSH1 0x0 DUP4 ADD DUP11 PUSH2 0xB07 JUMP JUMPDEST PUSH2 0xDB3 PUSH1 0x20 DUP4 ADD DUP10 PUSH2 0xB07 JUMP JUMPDEST DUP2 DUP2 SUB PUSH1 0x40 DUP4 ADD MSTORE PUSH2 0xDC5 DUP2 DUP9 PUSH2 0xD58 JUMP JUMPDEST SWAP1 POP PUSH2 0xDD4 PUSH1 0x60 DUP4 ADD DUP8 PUSH2 0xB16 JUMP JUMPDEST PUSH2 0xDE1 PUSH1 0x80 DUP4 ADD DUP7 PUSH2 0xB31 JUMP JUMPDEST PUSH2 0xDEE PUSH1 0xA0 DUP4 ADD DUP6 PUSH2 0xB16 JUMP JUMPDEST PUSH2 0xDFB PUSH1 0xC0 DUP4 ADD DUP5 PUSH2 0xB16 JUMP JUMPDEST SWAP9 SWAP8 POP POP POP POP POP POP POP POP JUMP JUMPDEST PUSH1 0x0 PUSH1 0x20 DUP3 ADD SWAP1 POP PUSH2 0xE1C PUSH1 0x0 DUP4 ADD DUP5 PUSH2 0xB07 JUMP JUMPDEST SWAP3 SWAP2 POP POP JUMP JUMPDEST PUSH1 0x0 DUP3 DUP3 MSTORE PUSH1 0x20 DUP3 ADD SWAP1 POP SWAP3 SWAP2 POP POP JUMP JUMPDEST PUSH32 0x496E73756666696369656E742066756E64696E67000000000000000000000000 PUSH1 0x0 DUP3 ADD MSTORE POP JUMP JUMPDEST PUSH1 0x0 PUSH2 0xE69 PUSH1 0x14 DUP4 PUSH2 0xE22 JUMP JUMPDEST SWAP2 POP PUSH2 0xE74 DUP3 PUSH2 0xE33 JUMP JUMPDEST PUSH1 0x20 DUP3 ADD SWAP1 POP SWAP2 SWAP1 POP JUMP JUMPDEST PUSH1 0x0 PUSH1 0x20 DUP3 ADD SWAP1 POP DUP2 DUP2 SUB PUSH1 0x0 DUP4 ADD MSTORE PUSH2 0xE98 DUP2 PUSH2 0xE5C JUMP JUMPDEST SWAP1 POP SWAP2 SWAP1 POP JUMP JUMPDEST PUSH32 0x4E487B7100000000000000000000000000000000000000000000000000000000 PUSH1 0x0 MSTORE PUSH1 0x11 PUSH1 0x4 MSTORE PUSH1 0x24 PUSH1 0x0 REVERT JUMPDEST PUSH1 0x0 PUSH2 0xED9 DUP3 PUSH2 0xA72 JUMP JUMPDEST SWAP2 POP PUSH32 0xFFFFFFFFFFFFFFFFFFFFFFFFFFFFFFFFFFFFFFFFFFFFFFFFFFFFFFFFFFFFFFFF DUP3 SUB PUSH2 0xF0B JUMPI PUSH2 0xF0A PUSH2 0xE9F JUMP JUMPDEST JUMPDEST PUSH1 0x1 DUP3 ADD SWAP1 POP SWAP2 SWAP1 POP JUMP JUMPDEST PUSH32 0x4E487B7100000000000000000000000000000000000000000000000000000000 PUSH1 0x0 MSTORE PUSH1 0x41 PUSH1 0x4 MSTORE PUSH1 0x24 PUSH1 0x0 REVERT JUMPDEST PUSH32 0x4E487B7100000000000000000000000000000000000000000000000000000000 PUSH1 0x0 MSTORE PUSH1 0x22 PUSH1 0x4 MSTORE PUSH1 0x24 PUSH1 0x0 REVERT JUMPDEST PUSH1 0x0 PUSH1 0x2 DUP3 DIV SWAP1 POP PUSH1 0x1 DUP3 AND DUP1 PUSH2 0xF8C JUMPI PUSH1 0x7F DUP3 AND SWAP2 POP JUMPDEST PUSH1 0x20 DUP3 LT DUP2 SUB PUSH2 0xF9F JUMPI PUSH2 0xF9E PUSH2 0xF45 JUMP JUMPDEST JUMPDEST POP SWAP2 SWAP1 POP JUMP JUMPDEST PUSH1 0x0 DUP2 SWAP1 POP DUP2 PUSH1 0x0 MSTORE PUSH1 0x20 PUSH1 0x0 KECCAK256 SWAP1 POP SWAP2 SWAP1 POP JUMP JUMPDEST PUSH1 0x0 PUSH1 0x20 PUSH1 0x1F DUP4 ADD DIV SWAP1 POP SWAP2 SWAP1 POP JUMP JUMPDEST PUSH1 0x0 DUP3 DUP3 SHL SWAP1 POP SWAP3 SWAP2 POP POP JUMP JUMPDEST PUSH1 0x0 PUSH1 0x8 DUP4 MUL PUSH2 0x1007 PUSH32 0xFFFFFFFFFFFFFFFFFFFFFFFFFFFFFFFFFFFFFFFFFFFFFFFFFFFFFFFFFFFFFFFF DUP3 PUSH2 0xFCA JUMP JUMPDEST PUSH2 0x1011 DUP7 DUP4 PUSH2 0xFCA JUMP JUMPDEST SWAP6 POP DUP1 NOT DUP5 AND SWAP4 POP DUP1 DUP7 AND DUP5 OR SWAP3 POP POP POP SWAP4 SWAP3 POP POP POP JUMP JUMPDEST PUSH1 0x0 DUP2 SWAP1 POP SWAP2 SWAP1 POP JUMP JUMPDEST PUSH1 0x0 PUSH2 0x104E PUSH2 0x1049 PUSH2 0x1044 DUP5 PUSH2 0xA72 JUMP JUMPDEST PUSH2 0x1029 JUMP JUMPDEST PUSH2 0xA72 JUMP JUMPDEST SWAP1 POP SWAP2 SWAP1 POP JUMP JUMPDEST PUSH1 0x0 DUP2 SWAP1 POP SWAP2 SWAP1 POP JUMP JUMPDEST PUSH2 0x1068 DUP4 PUSH2 0x1033 JUMP JUMPDEST PUSH2 0x107C PUSH2 0x1074 DUP3 PUSH2 0x1055 JUMP JUMPDEST DUP5 DUP5 SLOAD PUSH2 0xFD7 JUMP JUMPDEST DUP3 SSTORE POP POP POP POP JUMP JUMPDEST PUSH1 0x0 SWAP1 JUMP JUMPDEST PUSH2 0x1091 PUSH2 0x1084 JUMP JUMPDEST PUSH2 0x109C DUP2 DUP5 DUP5 PUSH2 0x105F JUMP JUMPDEST POP POP POP JUMP JUMPDEST JUMPDEST DUP2 DUP2 LT ISZERO PUSH2 0x10C0 JUMPI PUSH2 0x10B5 PUSH1 0x0 DUP3 PUSH2 0x1089 JUMP JUMPDEST PUSH1 0x1 DUP2 ADD SWAP1 POP PUSH2 0x10A2 JUMP JUMPDEST POP POP JUMP JUMPDEST PUSH1 0x1F DUP3 GT ISZERO PUSH2 0x1105 JUMPI PUSH2 0x10D6 DUP2 PUSH2 0xFA5 JUMP JUMPDEST PUSH2 0x10DF DUP5 PUSH2 0xFBA JUMP JUMPDEST DUP2 ADD PUSH1 0x20 DUP6 LT ISZERO PUSH2 0x10EE JUMPI DUP2 SWAP1 POP JUMPDEST PUSH2 0x1102 PUSH2 0x10FA DUP6 PUSH2 0xFBA JUMP JUMPDEST DUP4 ADD DUP3 PUSH2 0x10A1 JUMP JUMPDEST POP POP JUMPDEST POP POP POP JUMP JUMPDEST PUSH1 0x0 DUP3 DUP3 SHR SWAP1 POP SWAP3 SWAP2 POP POP JUMP JUMPDEST PUSH1 0x0 PUSH2 0x1128 PUSH1 0x0 NOT DUP5 PUSH1 0x8 MUL PUSH2 0x110A JUMP JUMPDEST NOT DUP1 DUP4 AND SWAP2 POP POP SWAP3 SWAP2 POP POP JUMP JUMPDEST PUSH1 0x0 PUSH2 0x1141 DUP4 DUP4 PUSH2 0x1117 JUMP JUMPDEST SWAP2 POP DUP3 PUSH1 0x2 MUL DUP3 OR SWAP1 POP SWAP3 SWAP2 POP POP JUMP JUMPDEST PUSH2 0x115A DUP3 PUSH2 0xD01 JUMP JUMPDEST PUSH8 0xFFFFFFFFFFFFFFFF DUP2 GT ISZERO PUSH2 0x1173 JUMPI PUSH2 0x1172 PUSH2 0xF16 JUMP JUMPDEST JUMPDEST PUSH2 0x117D DUP3 SLOAD PUSH2 0xF74 JUMP JUMPDEST PUSH2 0x1188 DUP3 DUP3 DUP6 PUSH2 0x10C4 JUMP JUMPDEST PUSH1 0x0 PUSH1 0x20 SWAP1 POP PUSH1 0x1F DUP4 GT PUSH1 0x1 DUP2 EQ PUSH2 0x11BB JUMPI PUSH1 0x0 DUP5 ISZERO PUSH2 0x11A9 JUMPI DUP3 DUP8 ADD MLOAD SWAP1 POP JUMPDEST PUSH2 0x11B3 DUP6 DUP3 PUSH2 0x1135 JUMP JUMPDEST DUP7 SSTORE POP PUSH2 0x121B JUMP JUMPDEST PUSH1 0x1F NOT DUP5 AND PUSH2 0x11C9 DUP7 PUSH2 0xFA5 JUMP JUMPDEST PUSH1 0x0 JUMPDEST DUP3 DUP2 LT ISZERO PUSH2 0x11F1 JUMPI DUP5 DUP10 ADD MLOAD DUP3 SSTORE PUSH1 0x1 DUP3 ADD SWAP2 POP PUSH1 0x20 DUP6 ADD SWAP5 POP PUSH1 0x20 DUP2 ADD SWAP1 POP PUSH2 0x11CC JUMP JUMPDEST DUP7 DUP4 LT ISZERO PUSH2 0x120E JUMPI DUP5 DUP10 ADD MLOAD PUSH2 0x120A PUSH1 0x1F DUP10 AND DUP3 PUSH2 0x1117 JUMP JUMPDEST DUP4 SSTORE POP JUMPDEST PUSH1 0x1 PUSH1 0x2 DUP9 MUL ADD DUP9 SSTORE POP POP POP JUMPDEST POP POP POP POP POP POP JUMP JUMPDEST PUSH32 0x55706B656570206E6F7420616374697665000000000000000000000000000000 PUSH1 0x0 DUP3 ADD MSTORE POP JUMP JUMPDEST PUSH1 0x0 PUSH2 0x1259 PUSH1 0x11 DUP4 PUSH2 0xE22 JUMP JUMPDEST SWAP2 POP PUSH2 0x1264 DUP3 PUSH2 0x1223 JUMP JUMPDEST PUSH1 0x20 DUP3 ADD SWAP1 POP SWAP2 SWAP1 POP JUMP JUMPDEST PUSH1 0x0 PUSH1 0x20 DUP3 ADD SWAP1 POP DUP2 DUP2 SUB PUSH1 0x0 DUP4 ADD MSTORE PUSH2 0x1288 DUP2 PUSH2 0x124C JUMP JUMPDEST SWAP1 POP SWAP2 SWAP1 POP JUMP JUMPDEST PUSH1 0x0 PUSH2 0x129A DUP3 PUSH2 0xA72 JUMP JUMPDEST SWAP2 POP PUSH2 0x12A5 DUP4 PUSH2 0xA72 JUMP JUMPDEST SWAP3 POP DUP3 DUP3 MUL PUSH2 0x12B3 DUP2 PUSH2 0xA72 JUMP JUMPDEST SWAP2 POP DUP3 DUP3 DIV DUP5 EQ DUP4 ISZERO OR PUSH2 0x12CA JUMPI PUSH2 0x12C9 PUSH2 0xE9F JUMP JUMPDEST JUMPDEST POP SWAP3 SWAP2 POP POP JUMP JUMPDEST PUSH32 0x496E73756666696369656E742066756E64730000000000000000000000000000 PUSH1 0x0 DUP3 ADD MSTORE POP JUMP JUMPDEST PUSH1 0x0 PUSH2 0x1307 PUSH1 0x12 DUP4 PUSH2 0xE22 JUMP JUMPDEST SWAP2 POP PUSH2 0x1312 DUP3 PUSH2 0x12D1 JUMP JUMPDEST PUSH1 0x20 DUP3 ADD SWAP1 POP SWAP2 SWAP1 POP JUMP JUMPDEST PUSH1 0x0 PUSH1 0x20 DUP3 ADD SWAP1 POP DUP2 DUP2 SUB PUSH1 0x0 DUP4 ADD MSTORE PUSH2 0x1336 DUP2 PUSH2 0x12FA JUMP JUMPDEST SWAP1 POP SWAP2 SWAP1 POP JUMP JUMPDEST PUSH1 0x0 PUSH2 0x1348 DUP3 PUSH2 0xA72 JUMP JUMPDEST SWAP2 POP PUSH2 0x1353 DUP4 PUSH2 0xA72 JUMP JUMPDEST SWAP3 POP DUP3 DUP3 SUB SWAP1 POP DUP2 DUP2 GT ISZERO PUSH2 0x136B JUMPI PUSH2 0x136A PUSH2 0xE9F JUMP JUMPDEST JUMPDEST SWAP3 SWAP2 POP POP JUMP JUMPDEST PUSH1 0x0 PUSH2 0x137C DUP3 PUSH2 0xA72 JUMP JUMPDEST SWAP2 POP PUSH2 0x1387 DUP4 PUSH2 0xA72 JUMP JUMPDEST SWAP3 POP DUP3 DUP3 ADD SWAP1 POP DUP1 DUP3 GT ISZERO PUSH2 0x139F JUMPI PUSH2 0x139E PUSH2 0xE9F JUMP JUMPDEST JUMPDEST SWAP3 SWAP2 POP POP JUMP JUMPDEST PUSH32 0x4F6E6C79206F776E65722063616E2063616E63656C0000000000000000000000 PUSH1 0x0 DUP3 ADD MSTORE POP JUMP JUMPDEST PUSH1 0x0 PUSH2 0x13DB PUSH1 0x15 DUP4 PUSH2 0xE22 JUMP JUMPDEST SWAP2 POP PUSH2 0x13E6 DUP3 PUSH2 0x13A5 JUMP JUMPDEST PUSH1 0x20 DUP3 ADD SWAP1 POP SWAP2 SWAP1 POP JUMP JUMPDEST PUSH1 0x0 PUSH1 0x20 DUP3 ADD SWAP1 POP DUP2 DUP2 SUB PUSH1 0x0 DUP4 ADD MSTORE PUSH2 0x140A DUP2 PUSH2 0x13CE JUMP JUMPDEST SWAP1 POP SWAP2 SWAP1 POP JUMP JUMPDEST PUSH32 0x55706B65657020616C72656164792063616E63656C6C65640000000000000000 PUSH1 0x0 DUP3 ADD MSTORE POP JUMP JUMPDEST PUSH1 0x0 PUSH2 0x1447 PUSH1 0x18 DUP4 PUSH2 0xE22 JUMP JUMPDEST SWAP2 POP PUSH2 0x1452 DUP3 PUSH2 0x1411 JUMP JUMPDEST PUSH1 0x20 DUP3 ADD SWAP1 POP SWAP2 SWAP1 POP JUMP JUMPDEST PUSH1 0x0 PUSH1 0x20 DUP3 ADD SWAP1 POP DUP2 DUP2 SUB PUSH1 0x0 DUP4 ADD MSTORE PUSH2 0x1476 DUP2 PUSH2 0x143A JUMP JUMPDEST SWAP1 POP SWAP2 SWAP1 POP JUMP INVALID LOG2 PUSH5 0x6970667358 0x22 SLT KECCAK256 0xC2 DELEGATECALL 0x26 0xE9 0xED DUP13 DUP1 0xD5 0xEC 0x4A CALLDATALOAD DUP5 0x4B DUP5 0xE6 0x4F 0xB0 SSTORE 0x1E SWAP16 DUP4 RETURNDATACOPY 0xB4 0x25 PUSH2 0xD05E PUSH12 0x90E9B53464736F6C63430008 EQ STOP CALLER "},"methodIdentifiers":{"addFunds(uint256)":"be999705","cancelUpkeep(uint256)":"c8048022","getUpkeepInfo(uint256)":"29e0a841","minimumFunding()":"8dda5462","owner()":"8da5cb5b","performUpkeep(uint256,uint256)":"56952b1a","registerUpkeep(address,bytes,uint256)":"46b7707d","upkeepCount()":"7323f3d0","upkeeps(uint256)":"8be59218"}}}}}