{
  "_format": "hh-sol-artifact-1",
  "contractName": "SimpleCounter",
  "sourceName": "src/contracts/contracts/SimpleCounter.sol",
  "abi": [
    {
      "anonymous": false,
      "inputs": [
        {
          "indexed": false,
          "internalType": "uint256",
          "name": "count",
          "type": "uint256"
        },
        {
          "indexed": false,
          "internalType": "uint256",
          "name": "timestamp",
          "type": "uint256"
        }
      ],
      "name": "CounterIncremented",
      "type": "event"
    },
    {
      "inputs": [],
      "name": "getCount",
      "outputs": [
        {
          "internalType": "uint256",
          "name": "",
          "type": "uint256"
        }
      ],
      "stateMutability": "view",
      "type": "function"
    },
    {
      "inputs": [],
      "name": "increment",
      "outputs": [],
      "stateMutability": "nonpayable",
      "type": "function"
    }
  ],
  "bytecode": "0x608060405234801561001057600080fd5b506101ca806100206000396000f3fe608060405234801561001057600080fd5b50600436106100365760003560e01c8063a87d942c1461003b578063d09de08a14610059575b600080fd5b610043610063565b60405161005091906100d9565b60405180910390f35b61006161006c565b005b60008054905090565b60008081548092919061007e90610123565b91905055507ff6ef72180c46cadbda80997bfa03fc39b76911c9bc988da15e4a47d55d687a31600054426040516100b692919061016b565b60405180910390a1565b6000819050919050565b6100d3816100c0565b82525050565b60006020820190506100ee60008301846100ca565b92915050565b7f4e487b7100000000000000000000000000000000000000000000000000000000600052601160045260246000fd5b600061012e826100c0565b91507fffffffffffffffffffffffffffffffffffffffffffffffffffffffffffffffff82036101605761015f6100f4565b5b600182019050919050565b600060408201905061018060008301856100ca565b61018d60208301846100ca565b939250505056fea264697066735822122085f484ede647731604eba40be30820825ef11a5ad6aa8cb4edba61d31fa399fe64736f6c63430008140033",
  "linkReferences": {},
  "deployedLinkReferences": {}
}