{
  "_format": "hh-sol-artifact-1",
  "contractName": "AutomationRegistry",
  "sourceName": "src/contracts/contracts/AutomationRegistry.sol",
  "abi": [
    {
      "inputs": [
        {
          "internalType": "uint256",
          "name": "_minimumFunding",
          "type": "uint256"
        }
      ],
      "stateMutability": "nonpayable",
      "type": "constructor"
    },
    {
      "anonymous": false,
      "inputs": [
        {
          "indexed": true,
          "internalType": "uint256",
          "name": "upkeepId",
          "type": "uint256"
        },
        {
          "indexed": false,
          "internalType": "uint256",
          "name": "amount",
          "type": "uint256"
        }
      ],
      "name": "FundsAdded",
      "type": "event"
    },
    {
      "anonymous": false,
      "inputs": [
        {
          "indexed": true,
          "internalType": "uint256",
          "name": "upkeepId",
          "type": "uint256"
        }
      ],
      "name": "UpkeepCancelled",
      "type": "event"
    },
    {
      "anonymous": false,
      "inputs": [
        {
          "indexed": true,
          "internalType": "uint256",
          "name": "upkeepId",
          "type": "uint256"
        },
        {
          "indexed": false,
          "internalType": "uint256",
          "name": "gasUsed",
          "type": "uint256"
        }
      ],
      "name": "UpkeepPerformed",
      "type": "event"
    },
    {
      "anonymous": false,
      "inputs": [
        {
          "indexed": true,
          "internalType": "uint256",
          "name": "upkeepId",
          "type": "uint256"
        },
        {
          "indexed": true,
          "internalType": "address",
          "name": "owner",
          "type": "address"
        },
        {
          "indexed": false,
          "internalType": "address",
          "name": "targetContract",
          "type": "address"
        }
      ],
      "name": "UpkeepRegistered",
      "type": "event"
    },
    {
      "inputs": [
        {
          "internalType": "uint256",
          "name": "_upkeepId",
          "type": "uint256"
        }
      ],
      "name": "addFunds",
      "outputs": [],
      "stateMutability": "payable",
      "type": "function"
    },
    {
      "inputs": [
        {
          "internalType": "uint256",
          "name": "_upkeepId",
          "type": "uint256"
        }
      ],
      "name": "cancelUpkeep",
      "outputs": [],
      "stateMutability": "nonpayable",
      "type": "function"
    },
    {
      "inputs": [
        {
          "internalType": "uint256",
          "name": "_upkeepId",
          "type": "uint256"
        }
      ],
      "name": "getUpkeepInfo",
      "outputs": [
        {
          "internalType": "address",
          "name": "owner",
          "type": "address"
        },
        {
          "internalType": "address",
          "name": "targetContract",
          "type": "address"
        },
        {
          "internalType": "uint256",
          "name": "balance",
          "type": "uint256"
        },
        {
          "internalType": "bool",
          "name": "active",
          "type": "bool"
        },
        {
          "internalType": "uint256",
          "name": "lastExecuted",
          "type": "uint256"
        },
        {
          "internalType": "uint256",
          "name": "interval",
          "type": "uint256"
        }
      ],
      "stateMutability": "view",
      "type": "function"
    },
    {
      "inputs": [],
      "name": "minimumFunding",
      "outputs": [
        {
          "internalType": "uint256",
          "name": "",
          "type": "uint256"
        }
      ],
      "stateMutability": "view",
      "type": "function"
    },
    {
      "inputs": [],
      "name": "owner",
      "outputs": [
        {
          "internalType": "address",
          "name": "",
          "type": "address"
        }
      ],
      "stateMutability": "view",
      "type": "function"
    },
    {
      "inputs": [
        {
          "internalType": "uint256",
          "name": "_upkeepId",
          "type": "uint256"
        },
        {
          "internalType": "uint256",
          "name": "_gasUsed",
          "type": "uint256"
        }
      ],
      "name": "performUpkeep",
      "outputs": [],
      "stateMutability": "nonpayable",
      "type": "function"
    },
    {
      "inputs": [
        {
          "internalType": "address",
          "name": "_targetContract",
          "type": "address"
        },
        {
          "internalType": "bytes",
          "name": "_checkData",
          "type": "bytes"
        },
        {
          "internalType": "uint256",
          "name": "_interval",
          "type": "uint256"
        }
      ],
      "name": "registerUpkeep",
      "outputs": [
        {
          "internalType": "uint256",
          "name": "",
          "type": "uint256"
        }
      ],
      "stateMutability": "payable",
      "type": "function"
    },
    {
      "inputs": [],
      "name": "upkeepCount",
      "outputs": [
        {
          "internalType": "uint256",
          "name": "",
          "type": "uint256"
        }
      ],
      "stateMutability": "view",
      "type": "function"
    },
    {
      "inputs": [
        {
          "internalType": "uint256",
          "name": "",
          "type": "uint256"
        }
      ],
      "name": "upkeeps",
      "outputs": [
        {
          "internalType": "address",
          "name": "owner",
          "type": "address"
        },
        {
          "internalType": "address",
          "name": "targetContract",
          "type": "address"
        },
        {
          "internalType": "bytes",
          "name": "checkData",
          "type": "bytes"
        },
        {
          "internalType": "uint256",
          "name": "balance",
          "type": "uint256"
        },
        {
          "internalType": "bool",
          "name": "active",
          "type": "bool"
        },
        {
          "internalType": "uint256",
          "name": "lastExecuted",
          "type": "uint256"
        },
        {
          "internalType": "uint256",
          "name": "interval",
          "type": "uint256"
        }
      ],
      "stateMutability": "view",
      "type": "function"
    }
  ],
  "bytecode": "0x60806040523480156200001157600080fd5b50604051620015bb380380620015bb8339818101604052810190620000379190620000c6565b33600360006101000a81548173ffffffffffffffffffffffffffffffffffffffff021916908373ffffffffffffffffffffffffffffffffffffffff1602179055508060028190555050620000f8565b600080fd5b6000819050919050565b620000a0816200008b565b8114620000ac57600080fd5b50565b600081519050620000c08162000095565b92915050565b600060208284031215620000df57620000de62000086565b5b6000620000ef84828501620000af565b91505092915050565b6114b380620001086000396000f3fe6080604052600436106100865760003560e01c80638be59218116100595780638be59218146101515780638da5cb5b146101945780638dda5462146101bf578063be999705146101ea578063c80480221461020657610086565b806329e0a8411461008b57806346b7707d146100cd57806356952b1a146100fd5780637323f3d014610126575b600080fd5b34801561009757600080fd5b506100b260048036038101906100ad9190610aa8565b61022f565b6040516100c496959493929190610b40565b60405180910390f35b6100e760048036038101906100e29190610c32565b6102cf565b6040516100f49190610ca6565b60405180910390f35b34801561010957600080fd5b50610124600480360381019061011f9190610cc1565b610529565b005b34801561013257600080fd5b5061013b610690565b6040516101489190610ca6565b60405180910390f35b34801561015d57600080fd5b5061017860048036038101906101739190610aa8565b610696565b60405161018b9796959493929190610d91565b60405180910390f35b3480156101a057600080fd5b506101a96107ad565b6040516101b69190610e07565b60405180910390f35b3480156101cb57600080fd5b506101d46107d3565b6040516101e19190610ca6565b60405180910390f35b61020460048036038101906101ff9190610aa8565b6107d9565b005b34801561021257600080fd5b5061022d60048036038101906102289190610aa8565b6108a2565b005b600080600080600080600080600089815260200190815260200160002090508060000160009054906101000a900473ffffffffffffffffffffffffffffffffffffffff168160010160009054906101000a900473ffffffffffffffffffffffffffffffffffffffff1682600301548360040160009054906101000a900460ff16846005015485600601549650965096509650965096505091939550919395565b6000600254341015610316576040517f08c379a000000000000000000000000000000000000000000000000000000000815260040161030d90610e7f565b60405180910390fd5b60006001600081548092919061032b90610ece565b9190505590506040518060e001604052803373ffffffffffffffffffffffffffffffffffffffff1681526020018773ffffffffffffffffffffffffffffffffffffffff16815260200186868080601f016020809104026020016040519081016040528093929190818152602001838380828437600081840152601f19601f8201169050808301925050505050505081526020013481526020016001151581526020014281526020018481525060008083815260200190815260200160002060008201518160000160006101000a81548173ffffffffffffffffffffffffffffffffffffffff021916908373ffffffffffffffffffffffffffffffffffffffff16021790555060208201518160010160006101000a81548173ffffffffffffffffffffffffffffffffffffffff021916908373ffffffffffffffffffffffffffffffffffffffff160217905550604082015181600201908161048c9190611151565b506060820151816003015560808201518160040160006101000a81548160ff02191690831515021790555060a0820151816005015560c082015181600601559050503373ffffffffffffffffffffffffffffffffffffffff16817f81587c9e5a0aabbf4bcd8148b4cb2916202290ff12b7af86c0afb92cc1bacc65886040516105159190610e07565b60405180910390a380915050949350505050565b600080600084815260200190815260200160002090508060040160009054906101000a900460ff16610590576040517f08c379a00000000000000000000000000000000000000000000000000000000081526004016105879061126f565b60405180910390fd5b60003a8361059e919061128f565b905080826003015410156105e7576040517f08c379a00000000000000000000000000000000000000000000000000000000081526004016105de9061131d565b60405180910390fd5b808260030160008282546105fb919061133d565b925050819055504282600501819055503373ffffffffffffffffffffffffffffffffffffffff166108fc829081150290604051600060405180830381858888f19350505050158015610651573d6000803e3d6000fd5b50837f9fbc2aeb5bf6200e5499d345acddf1dd462c37becb4673d661250b89ced7ff6a846040516106829190610ca6565b60405180910390a250505050565b60015481565b60006020528060005260406000206000915090508060000160009054906101000a900473ffffffffffffffffffffffffffffffffffffffff16908060010160009054906101000a900473ffffffffffffffffffffffffffffffffffffffff169080600201805461070590610f74565b80601f016020809104026020016040519081016040528092919081815260200182805461073190610f74565b801561077e5780601f106107535761010080835404028352916020019161077e565b820191906000526020600020905b81548152906001019060200180831161076157829003601f168201915b5050505050908060030154908060040160009054906101000a900460ff16908060050154908060060154905087565b600360009054906101000a900473ffffffffffffffffffffffffffffffffffffffff1681565b60025481565b60008082815260200190815260200160002060040160009054906101000a900460ff1661083b576040517f08c379a00000000000000000000000000000000000000000000000000000000081526004016108329061126f565b60405180910390fd5b3460008083815260200190815260200160002060030160008282546108609190611371565b92505081905550807ff5e4934928a1e45d88c7a5aa2661fe0a801ca5017922e15122d74f1880155e1a346040516108979190610ca6565b60405180910390a250565b600080600083815260200190815260200160002090508060000160009054906101000a900473ffffffffffffffffffffffffffffffffffffffff1673ffffffffffffffffffffffffffffffffffffffff163373ffffffffffffffffffffffffffffffffffffffff161461094a576040517f08c379a0000000000000000000000000000000000000000000000000000000008152600401610941906113f1565b60405180910390fd5b8060040160009054906101000a900460ff1661099b576040517f08c379a00000000000000000000000000000000000000000000000000000000081526004016109929061145d565b60405180910390fd5b60008160040160006101000a81548160ff021916908315150217905550600081600301549050600082600301819055508160000160009054906101000a900473ffffffffffffffffffffffffffffffffffffffff1673ffffffffffffffffffffffffffffffffffffffff166108fc829081150290604051600060405180830381858888f19350505050158015610a35573d6000803e3d6000fd5b50827fa8d8937df02c88ee443e3a549ab8653fbc3dfdc901e9426a1e50e06125c6bb0760405160405180910390a2505050565b600080fd5b600080fd5b6000819050919050565b610a8581610a72565b8114610a9057600080fd5b50565b600081359050610aa281610a7c565b92915050565b600060208284031215610abe57610abd610a68565b5b6000610acc84828501610a93565b91505092915050565b600073ffffffffffffffffffffffffffffffffffffffff82169050919050565b6000610b0082610ad5565b9050919050565b610b1081610af5565b82525050565b610b1f81610a72565b82525050565b60008115159050919050565b610b3a81610b25565b82525050565b600060c082019050610b556000830189610b07565b610b626020830188610b07565b610b6f6040830187610b16565b610b7c6060830186610b31565b610b896080830185610b16565b610b9660a0830184610b16565b979650505050505050565b610baa81610af5565b8114610bb557600080fd5b50565b600081359050610bc781610ba1565b92915050565b600080fd5b600080fd5b600080fd5b60008083601f840112610bf257610bf1610bcd565b5b8235905067ffffffffffffffff811115610c0f57610c0e610bd2565b5b602083019150836001820283011115610c2b57610c2a610bd7565b5b9250929050565b60008060008060608587031215610c4c57610c4b610a68565b5b6000610c5a87828801610bb8565b945050602085013567ffffffffffffffff811115610c7b57610c7a610a6d565b5b610c8787828801610bdc565b93509350506040610c9a87828801610a93565b91505092959194509250565b6000602082019050610cbb6000830184610b16565b92915050565b60008060408385031215610cd857610cd7610a68565b5b6000610ce685828601610a93565b9250506020610cf785828601610a93565b9150509250929050565b600081519050919050565b600082825260208201905092915050565b60005b83811015610d3b578082015181840152602081019050610d20565b60008484015250505050565b6000601f19601f8301169050919050565b6000610d6382610d01565b610d6d8185610d0c565b9350610d7d818560208601610d1d565b610d8681610d47565b840191505092915050565b600060e082019050610da6600083018a610b07565b610db36020830189610b07565b8181036040830152610dc58188610d58565b9050610dd46060830187610b16565b610de16080830186610b31565b610dee60a0830185610b16565b610dfb60c0830184610b16565b98975050505050505050565b6000602082019050610e1c6000830184610b07565b92915050565b600082825260208201905092915050565b7f496e73756666696369656e742066756e64696e67000000000000000000000000600082015250565b6000610e69601483610e22565b9150610e7482610e33565b602082019050919050565b60006020820190508181036000830152610e9881610e5c565b9050919050565b7f4e487b7100000000000000000000000000000000000000000000000000000000600052601160045260246000fd5b6000610ed982610a72565b91507fffffffffffffffffffffffffffffffffffffffffffffffffffffffffffffffff8203610f0b57610f0a610e9f565b5b600182019050919050565b7f4e487b7100000000000000000000000000000000000000000000000000000000600052604160045260246000fd5b7f4e487b7100000000000000000000000000000000000000000000000000000000600052602260045260246000fd5b60006002820490506001821680610f8c57607f821691505b602082108103610f9f57610f9e610f45565b5b50919050565b60008190508160005260206000209050919050565b60006020601f8301049050919050565b600082821b905092915050565b6000600883026110077fffffffffffffffffffffffffffffffffffffffffffffffffffffffffffffffff82610fca565b6110118683610fca565b95508019841693508086168417925050509392505050565b6000819050919050565b600061104e61104961104484610a72565b611029565b610a72565b9050919050565b6000819050919050565b61106883611033565b61107c61107482611055565b848454610fd7565b825550505050565b600090565b611091611084565b61109c81848461105f565b505050565b5b818110156110c0576110b5600082611089565b6001810190506110a2565b5050565b601f821115611105576110d681610fa5565b6110df84610fba565b810160208510156110ee578190505b6111026110fa85610fba565b8301826110a1565b50505b505050565b600082821c905092915050565b60006111286000198460080261110a565b1980831691505092915050565b60006111418383611117565b9150826002028217905092915050565b61115a82610d01565b67ffffffffffffffff81111561117357611172610f16565b5b61117d8254610f74565b6111888282856110c4565b600060209050601f8311600181146111bb57600084156111a9578287015190505b6111b38582611135565b86555061121b565b601f1984166111c986610fa5565b60005b828110156111f1578489015182556001820191506020850194506020810190506111cc565b8683101561120e578489015161120a601f891682611117565b8355505b6001600288020188555050505b505050505050565b7f55706b656570206e6f7420616374697665000000000000000000000000000000600082015250565b6000611259601183610e22565b915061126482611223565b602082019050919050565b600060208201905081810360008301526112888161124c565b9050919050565b600061129a82610a72565b91506112a583610a72565b92508282026112b381610a72565b915082820484148315176112ca576112c9610e9f565b5b5092915050565b7f496e73756666696369656e742066756e64730000000000000000000000000000600082015250565b6000611307601283610e22565b9150611312826112d1565b602082019050919050565b60006020820190508181036000830152611336816112fa565b9050919050565b600061134882610a72565b915061135383610a72565b925082820390508181111561136b5761136a610e9f565b5b92915050565b600061137c82610a72565b915061138783610a72565b925082820190508082111561139f5761139e610e9f565b5b92915050565b7f4f6e6c79206f776e65722063616e2063616e63656c0000000000000000000000600082015250565b60006113db601583610e22565b91506113e6826113a5565b602082019050919050565b6000602082019050818103600083015261140a816113ce565b9050919050565b7f55706b65657020616c72656164792063616e63656c6c65640000000000000000600082015250565b6000611447601883610e22565b915061145282611411565b602082019050919050565b600060208201905081810360008301526114768161143a565b905091905056fea2646970667358221220c2f426e9ed8c80d5ec4a35844b84e64fb0551e9f833eb42561d05e6b90e9b53464736f6c63430008140033",
  "linkReferences": {},
  "deployedLinkReferences": {}
}